:020000040800F2
:10000000C02900208D3F0008490100084B0100086D
:100010006F0100087301000877010008000000006C
:100020000000000000000000000000007B0100084C
:100030007D010008000000007F010008A53F0008C6
:10004000A73F0008A73F0008A73F0008A73F0008F8
:10005000A73F0008A73F0008A73F0008A73F0008E8
:10006000A73F0008A73F0008A73F0008A73F0008D8
:10007000A73F0008A73F0008A73F0008A73F0008C8
:10008000A73F0008A73F0008A73F0008A73F0008B8
:10009000A73F0008A73F0008A73F0008A73F0008A8
:1000A000A73F0008A73F0008A73F0008A73F000898
:1000B000511D0008A73F0008A73F0008A73F000800
:1000C000A73F0008A73F0008A73F0008A73F000878
:1000D000A73F0008CD0B0008A73F00087F5000088D
:1000E000A73F0008A73F0008A73F0008A73F000858
:1000F000A73F0008A73F0008A73F0008A73F000848
:10010000A73F0008A73F0008A73F0008A73F000837
:100110009F0C0008A73F0008A73F0008A73F000862
:10012000A73F0008A73F0008A73F0008A73F000817
:10013000DFF810D005F014FC00480047F106000875
:10014000AFF30080C029002070470FE071B600BFF8
:100150000B48006800F4E0600A490843001D0849A4
:100160000860BFF34F8F00BF00BFFEE7EEE700BFA0
:10017000FEE700BFFEE700BFFEE77047704770472D
:100180000CED00E00000FA0510B5FAA005F056FCF1
:1001900010BD2DE9F0470020FA490880FA4908808F
:1001A000FA490880FA4908800F2005F071F80446E2
:1001B000082005F06DF88146092005F069F88246AF
:1001C00004EB440005F067F907460022F14B05F007
:1001D000F3F8054605F09CF9EF49086009EB490082
:1001E00005F059F907460022EA4B05F0E5F8054607
:1001F00005F08EF9E94908600AEB4A0005F04BF971
:1002000007460022E34B05F0D7F8054605F080F9D4
:10021000E3490860E348C178807801EB0020D949C0
:100220000880E0484179007901EB0020D649088038
:10023000DC48C179807901EB0020D4490880D94895
:10024000417A007A01EB0020D1490880D548C17A73
:10025000807A01EB0020D4490880D249497BD14AF9
:10026000127B02EB820201EB420005F014F9074613
:100270000022CE4B05F0A0F8054605F049F9CC491F
:100280000860C849C97BC74A927B02EB820201EB36
:10029000420005F000F907460022C44B05F08CF837
:1002A000054605F035F9C3490860BB48006805F00C
:1002B00003F905464FF06632BF4B05F011F902D243
:1002C000032000F012FEBDE8F0872DE9F04F95B055
:1002D000BA48006840F2DC51884263D30020B74935
:1002E0000860FFF756FFB648007800285AD0002073
:1002F000B4490860A848006805F0DEF804460D46D9
:10030000A748006805F0D8F806460F46A3480068DD
:1003100005F0D2F880468946A648006805F0CCF87A
:1003200082468B46A248006805F0C6F8CDE9120166
:10033000A5480078A5490978A54A1278A54B1B78ED
:10034000CDE906ABCDE90889CDE90A67CDE90C45D1
:10035000CDE90E32CDE91010DDE91201CDE904013D
:10036000914800888A490988884A1288864B1B88E8
:10037000CDE90032CDE9021082480388964A9749B8
:10038000974805F06BFB97490860AFF20320002106
:100390000091CDE901109348914A9349036893482D
:1003A00004F035F815B0BDE8F08F10B501F0ECF9A8
:1003B0008F48C068012815D18D48406940F6B83192
:1003C00088420FD100208A49C8608A48007848B91D
:1003D00001208849087001F01CFA00207849087053
:1003E0008549086010BD2DE9F04105460E461446CA
:1003F0001F4600208149086081A1204604F0A0FF2B
:1004000000287DD082A1204604F09AFF00283BD02E
:1004100082A1204604F094FF80B18448007801282E
:1004200032D0002082490860022000F05EFD0020EA
:100430006849087001207D49087025E07DA12046AB
:1004400004F07EFF78B17948007801281CD00020A4
:1004500077490860012000F048FD01205D490870DF
:100460007249087010E077A1204604F069FF58B186
:10047000002078490860022000F037FD002055492F
:10048000087002206949087073A1204604F058FFE3
:1004900028B362A1204604F053FF48B100207149FF
:1004A0000860012000F079FD00204949087016E03D
:1004B00060A1204604F044FF48B10020694908606B
:1004C000022000F06AFD01204149087007E05DA1AB
:1004D000204604F035FF10B1032000F05EFD62A15C
:1004E000204604F02DFFB8B14CA1204604F028FFAF
:1004F00038B1032000F025FD0020344908700BE0DE
:1005000026E04CA1204604F01BFF28B1012000F09A
:1005100018FD01202D49087056A1204604F010FF57
:10052000B0B13EA1204604F00BFF30B1032000F033
:1005300060FD0020244908700AE03EA1204604F036
:10054000FFFE28B1012000F054FD01201E49087073
:10055000BDE8F08110B5254803F001FF00202649D1
:10056000086017490870012000F06FFD444805F04D
:1005700065FA10BD0D0AB7A2B2BCB3C9B9A60D0A7F
:100580000000000026000020280000202A00002093
:100590002C0000200000B0403C0000204000002063
:1005A00044000020A82300202E000020000024404A
:1005B00034000020380000206666FE3F080000205E
:1005C0007C010020F00100202400002023000020F6
:1005D0002200002021000020CC0200203C64000802
:1005E0000402002004000020FE020020281A00203F
:1005F000981900209C010020780100201C00002098
:100600002264617461223A227377697463682200FC
:1006100022626974223A223122000000227374613E
:10062000747573223A22302200000000200000205E
:100630001000002022737461747573223A223122F3
:100640000000000022737461747573223A222D3108
:10065000220000001400002022626974223A223233
:10066000220000001800002022626974223A22331E
:100670002200000022626974223A22342200000023
:10068000F463000810B5044656A005F0D7F910BD74
:1006900010B5044658A005F0D1F910BD08B51E21CB
:1006A0005A4804F042FE5A4B5AA25CA1574805F042
:1006B000D5F9AFF22F00AFF2270300225349009083
:1006C000584803F088FE1E21504804F02EFE504B7F
:1006D00055A252A1564805F0C1F9AFF25700AFF24A
:1006E0004F030022524900904E4803F074FE08BDAB
:1006F00000F0BAF84FF4E131084600F065F94FF424
:10070000165004F03BFC00F0A3FB04F069FD00F080
:10071000F1F801F0F5FA04F06FFD40F2FB4106201C
:1007200001F0D8FA3F4803F01AFEAFF28F013D48BE
:1007300003F048FEAFF2E3113A4803F046FEAFF291
:100740005931384803F044FE012000F07EFC39A006
:1007500005F074F944E001F0CFFA3848007808B9A0
:1007600000F00BFEFFF721FE3548007828B12D4838
:1007700003F01EFC2B4803F0DEFD324A3249A2F1A1
:100780000C0004F055FA2F480C38C068002825DD0D
:100790002E48006848B12C482C49096888472948E8
:1007A0000C38C168284804F0C0FD25480078A8B17D
:1007B0002748006843F69821884207D925A005F00C
:1007C0003DF90020274908601D4908701D480C3874
:1007D000808982B21C49134803F058FCFFF775FD6D
:1007E000B9E700000D0AB6A9D4C4D6F7CCE2CAA76F
:1007F000B0DC0D0A000000000D0AB3C9B9A6B6A905
:10080000D4C4D6F7CCE20D0A000000001C0300207F
:10081000CC020020757365722F00000025732573CC
:1008200000000000281A00206465766963652F00C7
:100830003A03002073746172740000009C01002070
:100840007C010020780E0020A812002070010020FA
:100850001C0000202E2E2E2E2E2E2E2E2E2E2E2E34
:100860000D0A00007801002008B54FF4A06001F0E7
:1008700045FC25208DF8000003208DF801008DF83F
:10088000020001208DF80300684601F03CFC2620A0
:100890008DF8000000208DF801008DF80200012085
:1008A0008DF80300684601F02EFC1C208DF8000036
:1008B00001208DF8030002208DF8010003208DF83F
:1008C0000200684601F01FFC08BD71B600BF074872
:1008D000006800F4E06006490843001D0349086011
:1008E000BFF34F8F00BF00BFFEE700000CED00E03C
:1008F0000000FA0510B56FF0040001F04EFC2E4820
:1009000000682E49B0FBF1F02D49087008460078C8
:1009100000EB4001C1EBC0104FF6FF7101EAC000CF
:100920002849088010BD0146254A12784A434FF0F5
:10093000E0235A6100229A611A46126942F00102CC
:100940001A6100BF4FF0E022106900F001021AB1F5
:1009500000F48032002AF5D04FF0E022126922F034
:1009600001024FF0E0231A6100229A6170470146AC
:10097000144A12884A434FF0E0235A6100229A61D8
:100980001A46126942F001021A6100BF4FF0E022DC
:10099000106900F001021AB100F48032002AF5D08B
:1009A0004FF0E022126922F001024FF0E0231A61B9
:1009B00000229A6170470000C401002000127A00F2
:1009C0003E0100204001002030B587B005460C46AE
:1009D0004FF48062FD49FE4804F04AF9C820FD4BFF
:1009E0004FF48062FC490090FC4804F0D7F8C8201E
:1009F000FB4B4FF48062FB490090FB4804F0CEF8BB
:100A000025208DF8040003208DF805008DF80600E0
:100A100001208DF8070001A801F075FB34208DF846
:100A2000040000208DF805008DF8060001208DF8E7
:100A3000070001A801F067FB01214FF4402001F0FD
:100A400046FD012144F2140001F034FD4FF4007022
:100A5000ADF8180003208DF81A0018208DF81B003F
:100A600006A9E24801F0EEFF4FF48060ADF81800EF
:100A700004208DF81B0006A9DC4801F0E3FF4FF4C9
:100A80008060ADF8180003208DF81A0018208DF84A
:100A90001B0006A9D64801F0D5FF4FF40060ADF861
:100AA000180004208DF81B0006A9D14801F0CAFFE8
:100AB0000020ADF80C00ADF80E00ADF81000ADF858
:100AC00014000C20ADF81200029502A9C94801F0EB
:100AD00098FD029402A9C84801F093FD012240F25A
:100AE0002551C44801F025FE012240F22551C2489B
:100AF00001F01FFE012240F22441BE4801F019FE20
:100B0000012240F22441BC4801F013FE0121B94802
:100B100001F003FE0121B84801F0FFFD07B030BD30
:100B200070B504460D461646B24884420BD1324693
:100B30002946A74804F0A6F9012240F22771204671
:100B400001F0F7FD1CE0AC48844219D1AB480560C8
:100B5000AB480660012240F22771204601F0E9FD12
:100B60000B22A8A19A4804F08DF9324629469848EC
:100B700004F088F9012240F227719E4801F0D9FD66
:100B800070BD70B506460C4615460BE014F8011B07
:100B9000304601F02FFE00BF8021304601F098FE64
:100BA0000028F9D0281EA5F10105EFD170BD70B560
:100BB00004460D462946204601F01CFE00BF802158
:100BC000204601F085FE0028F9D070BD38B540F20E
:100BD0002551884801F092FEA0B1864801F00EFE32
:100BE000C4B28B488B49096844548A480068401C49
:100BF0008849086008460068B0F5FB7F16D90020D8
:100C0000086013E040F224417A4801F077FE0128A1
:100C10000CD17848001D00886B467E487C490268EC
:100C20006E4803F0DBFF00207A49086040F227712C
:100C3000704801F063FE00B3654804F043F80028F3
:100C40000ADD01227449624804F06DF872480178A7
:100C5000684801F0CFFD10E040F22771654801F0CF
:100C600077FE002240F22771624801F062FD012206
:100C700040F226615F4801F05CFD40F226615D486C
:100C800001F03CFE50B140F226615A4801F060FE8E
:100C9000002240F22661574801F04BFD38BD38B5BF
:100CA00040F22551544801F029FEA0B1524801F00C
:100CB000A5FDC4B259485A490968445458480068C7
:100CC000401C5749086008460068B0F5FB7F27D9EB
:100CD0000020086024E040F22441474801F00EFE65
:100CE00001281DD14448001D00886B464C484B49E3
:100CF00002683D4803F072FF0B224AA1344804F019
:100D0000C1F8474845490268314804F0BBF8012260
:100D100040F22771374801F00CFD0020404908607F
:100D200040F22771344801F0E9FD40B334480068CF
:100D300080B13248006801782F4801F05BFD2F48F0
:100D40000068401C2D4908602D480068401E2C4951
:100D5000086014E000203649C1F8280940F22771E4
:100D6000254801F0F5FD002240F22771224801F0EC
:100D7000E0FC012240F226611F4801F0DAFC40F25B
:100D800026611D4801F0BAFD50B140F226611A48B3
:100D900001F0DEFD002240F22661174801F0C9FC97
:100DA00038BD38B504460D46E0B2009021480078C1
:100DB00038B901201F49087040F226610D4801F042
:100DC000C7FD01226946024836E000006C0A002097
:100DD00094030020A4090020A4030020580300204D
:100DE000A8140020A80E00206C0E0020000801406E
:100DF0000010014000380140004C00404401002038
:100E00005C0100200D0A3E3EB7A2CBCD3A0D0A0090
:100E100070150020480100204C01002070170020B0
:100E2000580100200D0A3C3CBDD3CAD53A0D0A003A
:100E3000281A00206001002004F024F8012240F26A
:100E40002771024801F075FC204638BD003801408A
:100E500008B501216D2001F02DFB01219A4801F018
:100E6000C2FE4FF40040ADF8000010208DF80300E2
:100E700003208DF802006946944801F0E3FD4FF429
:100E80000041924801F08DFE0820ADF800002820B6
:100E90008DF8030003208DF8020069468C4801F0AC
:100EA000D1FD4FF6F070ADF8000010208DF8030072
:100EB00003208DF802006946854801F0C3FD8021BA
:100EC000834801F06EFE6020ADF8000010208DF820
:100ED000030003208DF8020069467E4801F0B2FD50
:100EE00040217C4801F05BFE08BD10B50446012C92
:100EF00004D0022C0DD0032C21D115E04FF48051E9
:100F0000734801F04EFE4FF40051714801F047FE66
:100F100015E04FF480516E4801F041FE4FF400514E
:100F20006B4801F03EFE0AE04FF48051684801F042
:100F300038FE4FF40051664801F033FE00BF00BF99
:100F400010BD10B50446012C04D0022C0DD0032C8A
:100F500021D115E04FF480615D4801F022FE4FF48D
:100F600000615B4801F01BFE15E04FF480615848BA
:100F700001F015FE4FF40061554801F012FE0AE041
:100F80004FF48061524801F00CFE4FF4006150486C
:100F900001F007FE00BF00BF10BD10B50446012CD4
:100FA00004D0022C0DD0032C21D115E04FF4807118
:100FB000474801F0F6FD4FF40071454801F0EFFDA0
:100FC00015E04FF48071424801F0E9FD4FF40071E3
:100FD0003F4801F0E6FD0AE04FF480713C4801F023
:100FE000E0FD4FF400713A4801F0DBFD00BF00BFA7
:100FF00010BD10B50446012C04D0022C0DD0032CDA
:1010000021D115E04FF48041314801F0CAFD4FF481
:1010100000412F4801F0C3FD15E04FF480412C48FA
:1010200001F0BFFD4FF40041294801F0B8FD0AE08E
:101030004FF48041264801F0B4FD4FF400412448AC
:1010400001F0AFFD00BF00BF10BD10B50446012C7C
:1010500004D0022C0FD0032C27D119E010211C48FA
:1010600001F09DFD20211A4801F09BFD4021184808
:1010700001F097FD26E01021154801F092FD202196
:10108000134801F08CFD4021114801F08AFD19E060
:1010900010210F4801F085FD20210D4801F081FD50
:1010A00040210B4801F07BFD0CE01021084801F0C5
:1010B00078FD2021064801F074FD4021044801F02C
:1010C00070FD00BF00BF10BD0002300000080140ED
:1010D00000140140001801402DE9F04105460E467C
:1010E000144600202A49086001202A4908604DE082
:1010F00000F002FE27480068012813D1002026498D
:10110000086026480169264804F00FF900202149AB
:101110000860284604F026F907463A462946214841
:10112000FFF7FEFC1D4A0C321D491C4803F080FDF0
:101130001A48C068002810DD3EB13146184804F056
:10114000FFF810B10120BDE8F08134B12146144808
:1011500004F0F6F808B10120F5E70F48006840F602
:10116000B83188420ADB00200B4908600120094998
:10117000086007480068401C05490860044800688A
:10118000032803DB002002490860DCE7B0E7000029
:1011900064010020680100206C0100206C0E00201A
:1011A000A8120020004C004010B50446DFA2E0A1C8
:1011B000204600F08EFAE14908600846006804F015
:1011C000D1F8112816D13221DD4804F0AEF81122F1
:1011D000DA480168DA4804F08FF80120D94908702C
:1011E000D948006810B9D948006801E0D6480068BD
:1011F000D649086000F064FA10BD38B51E21D44805
:1012000004F093F8CE4BD3A2D4A1D14804F026FC2D
:10121000CB48D449C1F84809D3480178D148C0F82F
:101220005C19D249C0F84C19D149C0F85019C849C5
:10123000C0F85419CF49C0F85819CF480178C948A7
:10124000C0F86019CD480178C648C0F8641901217A
:10125000C0F86819694603F09AF80446002C04DDCA
:101260002246C7480099FFF75BFC38BD10B504461D
:10127000204603F099F8A0B90120B2490870B2489D
:10128000006810B9B148006801E0AF480068AF4994
:101290000860B448D0F8300918B1B249D1F8300923
:1012A000804710BD2DE9F04704460D4617461E46FF
:1012B000DDE90889B34804F055F882465146B14843
:1012C00004F033F8B04804F04DF882465146AE4879
:1012D00004F02BF827B13A46ACA1AA4804F0BEFBB3
:1012E00026B13246A9A1A84804F0B8FB05B1A84729
:1012F000A748C0F800809448C0F8009064B1224626
:10130000A2A1A44804F0AAFBA34908600846A14989
:1013100002689B48FFF704FCBDE8F08710B504465F
:10132000984804F01FF888B19649204604F008F860
:1013300060B10120834908708348006810B9834870
:10134000006801E080480068804908608E4804F029
:1013500009F888B18C49204603F0F2FF60B1012002
:10136000784908707848006810B97848006801E04A
:10137000754800687549086010BD1CB57348006861
:1013800086490968884274D985480078002870D158
:101390006E4908606B48007801280AD10020814915
:1013A00008606849087080480068401C7E490860F1
:1013B0000CE07C480068401C7A49086008460068D8
:1013C000032803DB0020086077490860764800683E
:1013D0000A2876D2DFE800F00511182633404E5B6C
:1013E0007686012071490860564908706B4800688C
:1013F000A0F5FA705549086095E000206B49086037
:101400000120504908708EE0644800686438AFF2EB
:10141000F301002366A2CDE90010194664A0FFF78E
:1014200041FF80E05D480068AFF20F11002361A228
:10143000CDE90010194660A0FFF734FF73E057486C
:101440000068AFF29B2100231A46CDE9001019462F
:101450005BA0FFF727FF66E050480068AFF243113A
:10146000002354A2CDE9001019465AA0FFF71AFF35
:1014700059E059E049480068AFF25F1100234DA2DE
:10148000CDE90010194657A0FFF70CFF4BE0594B70
:10149000594A5AA13F4804F0E1FA3F490860002048
:1014A0003C493D4A126888543C480068AFF29311A9
:1014B00059A35EA2CDE9001000213648FFF7F2FEE5
:1014C00031E01DE035480068AFF2AF11002339A2CA
:1014D000CDE90010194657A0FFF7E4FE0020594956
:1014E000086020E02D480068AFF27F2100231A46F3
:1014F000CDE90010AFF2FD211846FFF7D3FE12E050
:101500002648006800210B460A46CDE9001008462F
:10151000FFF7C8FE00200B4908702349086001202E
:101520001F49087000BF00BF1CBD00002200000062
:101530004D41435F4355523A220000000000002015
:10154000CC0200208C0100208401002074010020C6
:10155000FE0200206465766963652F00257325739C
:1015600000000000281A0020CD0000208700002085
:101570009B000020EC0000201E0100201F01002025
:10158000004C0040701900208419002025730000D1
:1015900070010020040200200400002080010020CF
:1015A0007C0100208801002078010020BC0121423C
:1015B0002B2B2B004F4B0000415445300D0A0000EF
:1015C00041542B4349505354414D41435F4355527D
:1015D0003F0D0A0041542B4349504D55583D300DA5
:1015E0000A00000041542B4349504D4F44453D31C2
:1015F0000D0A0000800000204900002041542B43C8
:10160000495053544152543D22544350222C2225D8
:1016100073222C25730D0A00414C52454144592038
:10162000434F4E4E4543544544000000434F4E4EF9
:101630004543540041542B43495053454E440D0AF1
:10164000000000001C00002010B54C48006804F0A9
:1016500073FE10BD2DE9F04781460F4690460024E9
:1016600000260025384603F07DFEC5B239464846BF
:1016700003F066FE04460CB36119481C414603F0B2
:101680005FFE0646C6B16119711A481C04F07CFE63
:101690003A4908606019301A411C3848006803F064
:1016A00044FE6019321A61193448006803F024FEC0
:1016B00032480068BDE8F0870020FBE70020F9E72A
:1016C0002F48006820B12F4800782D49096808701C
:1016D00070472DE9F04180460D461646002400274C
:1016E000284603F03FFEC7B22946404603F028FED5
:1016F0000446BCB1E119481C314603F021FE2049E3
:1017000008600846006858B10846006800781D491E
:10171000087000201A4909680870E019BDE8F081D6
:101720000020FBE70020F9E72DE9F04707460E46C9
:10173000144698464FF000091FB1384603F012FED8
:1017400008B9BDE8F0871EB1304603F00BFE00B9C2
:10175000F7E73146384603F00DFE054608E004B1D0
:1017600020C409F101093146002003F003FE0546BB
:10177000002DF4D1C8F8009000BFE2E790010020EE
:10178000940100209801002018480068012815D114
:101790001748406840BB16480068401C1449086060
:1017A00008460068B0F5FA7F1EDB002008608860FC
:1017B00001204860C8600020086115E00C480068FE
:1017C000401C0B49086008460068B0F5FA6F0BDD55
:1017D0000020086008464068012805D18860002084
:1017E0004860C86001200861704700000C812242F7
:1017F0009819002010B50120B34908606420FFF754
:10180000B6F80020B149C1F8BC016420FFF7AFF879
:1018100010BD10B50020AE4908700320FFF715FC7D
:10182000FFF7E8FF0022ABA1AAA0FFF755FC0028B4
:101830007ED00022A8A1AAA0FFF74EFC0028F7D076
:101840000022ABA1ABA0FFF747FC0028F0D000229C
:10185000ADA1AFA0FFF740FC0028E9D0B1A2B2A132
:10186000B448FFF736FFB44908600846006803F043
:1018700079FD11280AD11221B04803F056FD11223A
:10188000AD480168AD4803F037FD00E0D4E0FFF754
:1018900017FF002296A1AAA0FFF71EFC0028C7D0C0
:1018A000002293A1B0A0FFF717FC0028C0D00020B1
:1018B000B94908603EE000F01FFA00208249086044
:1018C000B64A9C49A2F10C0003F0B2F9B3480C38B7
:1018D000C06800282EDD93A2B1A19648FFF7F9FE5B
:1018E000954908600846006820B32021AF4803F0FE
:1018F0001CFD9148AEA10268AC4804F0AFF8FFF7B8
:10190000DFFE88A2ABA18B48FFF7E3FE8A4908609F
:101910000846006868B14021A84803F006FD8648E3
:10192000A3A10268A54804F099F8FFF7C9FE02E0F8
:1019300081E081E0BFE700BFA14B804AA1A1A74899
:1019400004F08CF8A64908600846A6A10268A348DE
:1019500004F084F8A24908600022A6A19F48FFF77E
:10196000BBFBE8B1C8219D4803F0DFFC944B734AF0
:1019700094A19A4804F072F899490860084697497A
:1019800002689D48FFF7CCF800208349086001E019
:1019900000F0B2F980480068B0F5FA6FF8D300E0C3
:1019A0004AE0874B654A87A18C4804F057F88C4978
:1019B000086008468BA10268884804F04FF88849FF
:1019C000086000228BA18548FFF786FBE8B1C8219B
:1019D000824803F0AAFC7A4B584A7AA17F4804F067
:1019E0003DF87F49086008467C4902688248FFF755
:1019F00097F800206849086001E000F07DF966482A
:101A00000068B0F5FA6FF8D300E015E0002238A1C5
:101A10007AA0FFF761FB70B1684B644A7CA16F4804
:101A200004F01CF881A285A16C48FFF755FB10B1AA
:101A300001202749087000BFFFF7DCFE00222CA11F
:101A400081A0FFF749FB10B10020844908702048AD
:101A5000007810BD10B5FFF7CDFE00221DA11DA01E
:101A6000FFF73AFB00221CA11DA0FFF735FB002267
:101A70001FA175A0FFF730FB00221DA15FA0FFF79B
:101A80002BFB6AA21AA176A0FFF726FBFFF7B2FE96
:101A900010BD10B59AB00024FFF7ACFE00220DA1D6
:101AA0000CA0FFF719FB77A378A27CA101A803F093
:101AB000D5FF83A20EA101A8FFF70EFB0446FFF796
:101AC00099FE20461AB010BDBC01214200002142FF
:101AD000A40100202B2B2B007265616479000000AB
:101AE00041542B524553544F52450D0A00000000FB
:101AF0004F4B000041542B43574D4F44455F4445E5
:101B0000463D330D0A0000004D41435F43555200EE
:101B100041542B4349505354414D41435F43555227
:101B20003F0D0A00220000004D41435F4355523AE9
:101B300022000000A812002000000020141A00203B
:101B400041542B43575341505F4445463D227878DA
:101B50006C222C22313233343536373839222C314D
:101B6000312C342C340D0A0041542B43495053542A
:101B70004152543D22554450222C223139322E31CB
:101B800036382E342E32222C353535352C35353538
:101B9000362C320D0A000000A0010020780E002033
:101BA0002273736964223A2200000000B4190020F5
:101BB0002573000022707764223A2200D419002095
:101BC000AC0100207B226D6163223A222573222C16
:101BD000226970223A222573227D0000040200202F
:101BE0000400002041542B43495053454E443D25A9
:101BF000640D0A003E000000004C004041542B439D
:101C0000574155544F434F4E4E3D310D0A00000091
:101C100041542B43574A41505F4445463D2225736A
:101C2000222C222573220D0A000000005749464944
:101C300020434F4E4E4543544544000057494649C2
:101C400020474F542049500041542B43574D4F4497
:101C5000455F4445463D310D0A0000009C010020CF
:101C600041542B43574A41505F4445463D22313051
:101C70003032222C22313233343536373839302263
:101C80000D0A000038303833000000003131362EA4
:101C900036322E34342E31313800000041542B536B
:101CA0004156455452414E534C494E4B3D312C22E6
:101CB0002573222C25732C22544350220D0A000038
:101CC000414C524541445920434F4E4E45435445A3
:101CD0004400000070B505460C4645F2555001F031
:101CE0000DFF284601F00DFF204601F00DFF01F029
:101CF0000EFF01F011FF70BD10B501F008FF10BD1F
:101D00000EB50121084600F0E2FB4FF0804000F0E4
:101D1000E7FF0020ADF80600ADF802000A20ADF89C
:101D2000040041F61F40ADF8000069464FF08040C6
:101D300001F0AAF80121880701F0DCFE01218807E3
:101D400001F0FEFB01221146900701F014FC0EBDCC
:101D500010B50121880701F0BCFE01287ED10121C8
:101D6000800701F0C7FE5B480068401C59490860C5
:101D700059480068401C5849086058480068401C91
:101D80005649086056480068401C55490860554847
:101D90000068401C5349086053480068401C524981
:101DA000086052480068401C50490860504800686C
:101DB000401C4F4908604F4802F04DFA4648006801
:101DC00042F21071884202D1002043490860444821
:101DD0000068B0F5C87F07D1002041490860464936
:101DE00008700320FFF781F83C480068322809D3C7
:101DF00041480078022805D10020384908600320B6
:101E0000FFF773F8374800683C2805D100203549B2
:101E100008600320FFF7C1F838480068401C3749C4
:101E20000860084600683649884202D900203349D4
:101E3000086034480078B0B133480068401C32492B
:101E400008600846006864282AD9002008602F48E6
:101E50000068C0432E49C1F8940100E038E0032037
:101E6000FFF7F3F81CE02B480078012815D126482D
:101E70000068401C2449086008460068B0F57A7F75
:101E80000ED90020086021480068C0432049C1F8ED
:101E900094010220FFF7D9F802E000201A490860F7
:101EA0001D48406828B11C484069401C1A494861D7
:101EB00002E00020184948611748806828B1164898
:101EC0008069401C1449886102E000201249886141
:101ED00010BD0000080000200C00002014000020AD
:101EE00010000020180000201C0000206C010020C1
:101EF00074010020281A002020000020A0010020EA
:101F0000701101009C010020A801002094012342CF
:101F1000000023427C010020981900200CB500200D
:101F2000019000906C48006840F480306A49086075
:101F300000BF6948006800F4003000900198401C20
:101F40000190009818B90198B0F5A06FF1D16248DE
:101F5000006800F4003010B10120009001E0002082
:101F600000900098012843D15C48006840F01000C0
:101F70005A4908600846006820F0030008600846D7
:101F8000006840F0020008605348406852494860C9
:101F90000846406848600846406840F480604860F1
:101FA0000846406820F47C1048600846406840F4C9
:101FB000E81048600846006840F08070086000BF84
:101FC0004548006800F000700028F9D04248406899
:101FD00020F00300404948600846406840F0020095
:101FE000486000BF3C48406800F00C000828F9D168
:101FF0000CBD10B5FFF792FF10BD10B53648006854
:1020000040F00100344908600846406834490840FF
:102010003149486008460068324908402E49086046
:102020000846006820F4802008600846406820F4D4
:10203000FE0048604FF41F008860FFF7DAFF4FF0A2
:1020400000602949086010BD10B500210020002261
:10205000214B5B6803F00C0121B1042906D008294B
:1020600028D107E0214B224C236027E01F4B204C56
:10207000236023E0184B5B6803F47010164B5B6819
:1020800003F48032022303EB904022B9194B4343FF
:10209000174C23600DE0104B5B6803F4003323B151
:1020A000144B4343124C236003E0104B4343104C4A
:1020B000236003E00D4B0E4C236000BF00BF064BB6
:1020C0005B68C3F303130C4CE15C094B1B68CB400A
:1020D000074C236010BD00000010024000200240A9
:1020E0000000FFF8FFFFF6FE08ED00E000127A00A6
:1020F000C401002000093D00C8010020314901430E
:10210000314A1160704770B5002100230F22C47856
:1021100004B32D4C246804F4E064C4F5E064210A9F
:10212000C1F10403CA40447804FA03F184781440EE
:1021300021430901254C0678A155047804F01F05B8
:102140000124AC4005786D11AD0005F1E025C5F81E
:10215000004109E0047804F01F050124AC401C4D47
:102160000678761145F8264070BD1A4A0A400243A7
:10217000154B1B1F1A60704739B1134A121D1268A4
:102180000243114B1B1D1A6006E00F4A121D126814
:1021900082430D4B1B1D1A607047042808D14FF075
:1021A000E021096941F004014FF0E022116107E0EC
:1021B0004FF0E021096921F004014FF0E0221161A4
:1021C000704700000000FA050CED00E000E400E0BC
:1021D00080E100E080FFFF1FDF48006840F0010061
:1021E000DD49086008464068DC490840DA49486033
:1021F00008460068DA490840D74908600846006880
:1022000020F4802008600846406820F4FE00486002
:102210004FF41F0088607047CF49096821F480316E
:10222000CD4A11601146096821F480211160B0F592
:10223000803F03D0B0F5802F0ED106E0C649096873
:1022400041F48031C44A116007E0C349096841F490
:10225000A021C14A116000E000BF00BF704710B567
:1022600001460022002300204A11012A02D1BA4C63
:10227000236806E0022A02D1B74C236A01E0B64C7B
:10228000636A01F01F02012494401C400CB101203C
:1022900000E0002010BD38B500200090002400258B
:1022A00000BF3120FFF7DBFF05460098401C00907F
:1022B0000098B0F5A06F01D0002DF2D03120FFF7CB
:1022C000CEFF08B1012400E00024204638BD0146BD
:1022D0000020A14A106820F0F80040EAC100106018
:1022E0007047A04908607047024600209A4B586822
:1022F00020F47C1042EA01031843974B5860704762
:1023000098490866704701460020934A506820F0BB
:1023100003000843506070478F48406800F00C008D
:102320007047014600208C4A506820F0F0000843B6
:102330005060704701460020874A506820F4E060F2
:1023400008435060704701460020834A506820F4DB
:10235000605040EAC1005060704729B17E4A527A0D
:1023600002437D4B5A7204E07B4A527A82437A4B95
:102370005A7270477B49D831086070470146002087
:10238000754A506820F4404008435060704700216F
:10239000714A20321170704A82F82010012802D050
:1023A00004280AD104E001216B4A2032117005E0B3
:1023B0000521694A2032117000E000BF00BF70475C
:1023C0006949086070476449096A0143624A1162B9
:1023D0007047654944390860704730B500210022D4
:1023E000002400235C4D6D6805F00C0121B1042927
:1023F00005D0082923D105E05C4D056022E05B4D46
:1024000005601FE0544D6D6805F47012524D6D6803
:1024100005F48034022505EB92421CB9544D554316
:1024200005600BE04C4D6D6805F400351DB1504D55
:102430005543056002E04D4D5543056002E04B4DAC
:10244000056000BF00BF444D6D6805F0F00109094B
:10245000484D6B5C0568DD4045603F4D6D6805F497
:10246000E061090A434D6B5C4568DD4085603A4D8B
:102470006D6805F46051C90A3E4D6B5C4568DD40EE
:10248000C560354D6D6805F44041890B3A4D6B5C74
:10249000C568B5FBF3F5056130BD29B12E4A526917
:1024A00002432D4B5A6104E02B4A526982432A4B66
:1024B0005A61704729B1284A92690243264B9A61B2
:1024C00004E0254A92698243234B9A61704729B1FF
:1024D000214AD2690243204BDA6104E01E4AD269E4
:1024E00082431D4BDA61704729B11B4AD26802430F
:1024F000194BDA6004E0184AD2688243164BDA605E
:10250000704729B1144A12690243134B1A6104E05F
:10251000114A12698243104B1A61704712494039BF
:10252000086070470F49C86470470B49C87170470D
:102530000948406A40F08070074948627047014688
:102540000020054A92680A400AB1012000E00020FC
:102550007047014988727047001002400000FFF880
:10256000FFFFF6FE000042428004424200127A0061
:1025700000093D00D8010020E801002010B5044604
:10258000FB48844209D101218803FFF7ADFF0021F8
:102590004FF48040FFF7A8FF32E0F648844209D1AB
:1025A00001214804FFF7ADFF00214FF40030FFF791
:1025B000A8FF25E0F048844209D101218804FFF7F3
:1025C000A0FF00214FF48020FFF79BFF18E0EB48AD
:1025D000844209D10121C804FFF793FF00214FF481
:1025E0000020FFF78EFF0BE0E548844208D101216F
:1025F0000805FFF786FF00214FF48010FFF781FFE9
:1026000010BD2DE9F04786B005460E460024A246CF
:1026100000BFA1460027B08900B100BF2F462C8A19
:102620004CF6FF700440F08804432C82AC894EF6CF
:10263000F3100440B088318908437189084304438A
:10264000AC81AC8A4FF6FF400440B0890443AC82B1
:1026500001A8FFF7C2FEC648874202D1DDF810A0EC
:1026600001E0DDF80CA0A88900F4004040B10AEBBD
:10267000CA0000EB0A1031684900B0FBF1F807E02E
:102680000AEBCA0000EB0A1031688900B0FBF1F8D0
:102690006420B8FBF0F004012009642101FB1089DB
:1026A000A88900F4004040B1322000EBC900B0FB23
:1026B000F1F000F00700044308E0322000EB0910BD
:1026C0006421B0FBF1F000F00F0004432C8106B050
:1026D000BDE8F0874FF41651016000218180C18070
:1026E00001810C21418100218181704710B5024692
:1026F0000020108A4FF2FF0318400B884C882343B8
:102700008C882343CC8823431843108210BD0021BA
:10271000018041808180C180704721B1828942F46B
:102720000052828104E082894DF6FF731A40828153
:102730007047F0B50346002400260025002040F62F
:102740006A17B94200D100BF1846C1F3421401F024
:102750001F06012707FA06F5012C01D10C3004E011
:10276000022C01D1103000E014301AB107682F4359
:10277000076002E00768AF430760F0BD1AB1838AC3
:102780000B43838202E0838A8B4383827047028AF1
:102790004FF6F0731A400282028A0A43028270479F
:1027A00082894FF2FF731A40828182890A438281B3
:1027B000704721B1828942F00202828104E082895D
:1027C0004FF6FD731A4082817047028A4FF6DF731D
:1027D0001A400282028A0A430282704721B1028AA9
:1027E00042F48042028204E0028A4BF6FF731A40F0
:1027F00002827047C1F308028280704701468888D0
:10280000C0F308007047818941F001018181704760
:10281000028BD2B20283028B42EA0122028370470A
:10282000028B02F47F420283028B0A4302837047C9
:1028300021B1828A42F02002828204E0828A4FF62D
:10284000DF731A408282704721B1828A42F01002FF
:10285000828204E0828A4FF6EF731A4082827047C8
:1028600021B1828A42F00802828204E0828A4FF615
:10287000F7731A408282704721B1828942F4004284
:10288000828103E08289C2F30E028281704721B106
:10289000828A42F40062828204E0828A4FF2FF73ED
:1028A0001A4082827047828A4FF6FB731A408282F6
:1028B000828A0A438282704721B1828A42F00202F0
:1028C000828204E0828A4FF6FD731A40828270474A
:1028D00002460020B1F5007F00D100BF13880B40F5
:1028E0000BB1012000E00020704701F40072B2F546
:1028F000007F00D100BFCA430280704770B5024616
:10290000002400230025002040F66A16B14200D1C1
:1029100000BFC1F3421501F01F03012606FA03F3BD
:10292000012D02D19689334006E0022D02D1168A8C
:10293000334001E0968A33400C12012606FA04F473
:102940001688344013B10CB1012000E0002070BDA6
:1029500010B50022002340F66A14A14200D100BF46
:102960000A1201249440A3B2DC43048010BD00008D
:10297000003801400044004000480040004C004046
:102980000050004010B50446CC48844208D10121D3
:102990000420FFF7A9FD00210420FFF7A5FD46E074
:1029A000C748844208D101210820FFF79DFD00217E
:1029B0000820FFF799FD3AE0C248844208D101217E
:1029C0001020FFF791FD00211020FFF78DFD2EE074
:1029D000BD48844208D101212020FFF785FD002158
:1029E0002020FFF781FD22E0B848844208D1012170
:1029F0004020FFF779FD00214020FFF775FD16E02C
:102A0000B348844208D101218020FFF76DFD0021E9
:102A10008020FFF769FD0AE0AE48844207D101211A
:102A20008015FFF761FD0021A015FFF75DFD10BDCA
:102A300010B501210846FFF757FD00210120FFF7DF
:102A400053FD10BD2DE9F04102460025002600206F
:102A500000230024002791F803C00CF00F0591F823
:102A600003C00CF0100CBCF1000F03D091F802C0B1
:102A70004CEA050591F800C0BCF1000F31D0146894
:102A800000202BE04FF0010C0CFA00F3B1F800C06D
:102A90000CEA03069E4220D183004FF00F0C0CFA83
:102AA00003F7BC4305FA03FC4CEA040491F803C0A5
:102AB000BCF1280F06D14FF0010C0CFA00FCC2F853
:102AC00014C00AE091F803C0BCF1480F05D14FF0E3
:102AD000010C0CFA00FCC2F810C0401C0828D1D32D
:102AE0001460B1F800C0BCF1FF0F34DD5468002061
:102AF0002EE000F1080C4FF0010808FA0CF3B1F8D1
:102B000000C00CEA03069E4221D183004FF00F0C57
:102B10000CFA03F7BC4305FA03FC4CEA040491F8F1
:102B200003C0BCF1280F05D100F1080C08FA0CF81D
:102B3000C2F8148091F803C0BCF1480F07D100F12E
:102B4000080C4FF0010808FA0CF8C2F81080401C7D
:102B50000828CED35460BDE8F0814FF6FF710180A4
:102B6000022181700421C1707047024600209368E1
:102B70000B400BB1012000E000207047014688683F
:102B800080B2704702460020D3680B400BB1012091
:102B900000E0002070470146C86880B270470161BC
:102BA0007047416170470AB1016100E041617047BF
:102BB000C16070474FF480320A4382618161826153
:102BC00082698269704702460020434B18684FF6BD
:102BD0008073184040EA021008433F4B186070476A
:102BE0003E49C8617047F0B50A4600230024002121
:102BF000002500F00046B6F1004F02D1364EF169D3
:102C000001E0354E7168C0F3034583B200F440160D
:102C1000B6F5401F08D121F070612F4E766826F07E
:102C200070662D4F7E6012E000F48016B6F5801FAE
:102C300006D1032606FA05F4A14341F0706106E0CF
:102C4000460D360103FA06F6B14341F0706122B138
:102C5000460D360103FA06F6314300F00046B6F1A0
:102C6000004F02D11C4EF16101E01B4E7160F0BDBE
:102C700030B500228B071C0F0F2303FA04F2164B0A
:102C800008338C1053F824309343134C08348D10C0
:102C900044F8253023468C1053F824308C07240F39
:102CA00000FA04F423430C4C08348D1044F825300A
:102CB00030BD0A49DC31086070470000000801405F
:102CC000000C0140001001400014014000180140B8
:102CD000001C014000200140000001400000204293
:102CE00010B50446FE48844208D10121C014FFF704
:102CF000FBFB0021E014FFF7F7FBC4E0B4F1804FC9
:102D000008D101210846FFF7FCFB00210120FFF755
:102D1000F8FBB8E0F348844208D101210220FFF714
:102D2000F0FB00210220FFF7ECFBACE0EE48844210
:102D300008D101210420FFF7E4FB00210420FFF764
:102D4000E0FBA0E0E948844208D101210820FFF718
:102D5000D8FB00210820FFF7D4FB94E0E44884422C
:102D600008D101211020FFF7CCFB00211020FFF734
:102D7000C8FB88E0DF48844208D101212020FFF70A
:102D8000C0FB00212020FFF7BCFB7CE0DA48844236
:102D900008D101214014FFF7A7FB00216014FFF7C1
:102DA000A3FB70E0D548844209D10121C804FFF794
:102DB0009BFB00214FF40020FFF796FB63E0D04817
:102DC000844209D101210805FFF78EFB00214FF451
:102DD0008010FFF789FB56E0CA48844209D10121DF
:102DE0004805FFF781FB00214FF40010FFF77CFB43
:102DF00049E0C548844208D101214020FFF781FB0A
:102E000000214020FFF77DFB3DE0C048844208D10F
:102E100001218020FFF775FB00218020FFF771FB67
:102E200031E0BB48844208D101218015FFF769FBDE
:102E30000021A015FFF765FB25E0B648844209D1C3
:102E400001210804FFF750FB00214FF48030FFF709
:102E50004BFB18E0B048844209D101214804FFF738
:102E600043FB00214FF40030FFF73EFB0BE0AB4883
:102E7000844208D101218804FFF736FB00214FF47A
:102E80008020FFF731FB10BD00220288944B98424E
:102E90000ED0994B98420BD0B0F1804F08D0914B97
:102EA000984205D0904B984202D0904B984204D162
:102EB0004FF68F731A404B881A438D4B984207D0B8
:102EC0008C4B984204D04FF6FF431A40CB881A43EC
:102ED00002808B8883850B880385814B98420BD0B9
:102EE000854B984208D08B4B984205D08A4B98422C
:102EF00002D08A4B984201D10B7A03860123838248
:102F0000704770B5002400220023058C4FF6FE7632
:102F100035400584028C8388048B4FF68F752C40D6
:102F2000B51E2C400D882C43751E2A400D892A435E
:102F30004D882A436A4DA8420BD06F4DA84208D055
:102F4000744DA84205D0744DA84202D0734DA842DA
:102F500013D14FF6F7752A404D892A434FF6FB757A
:102F60002A408D882A434FF6FF652B404FF6FF55C8
:102F70002B408D892B43CD892B4383800483CD88BF
:102F80008586028470BD70B5002400220023058C64
:102F90004FF6EF7635400584028C8388048B48F623
:102FA000FF752C404FF6FF452C400D884FF6FF76FD
:102FB00006EA05252C434FF6DF752A400D8906EAFF
:102FC00005152A434D8806EA05152A43444DA842B3
:102FD00002D0494DA8421DD14FF67F752A404D8938
:102FE0004FF6FF7606EA05152A434FF6BF752A40CD
:102FF0008D8806EA05152A434FF6FF352B404FF220
:10300000FF752B408D8906EA85052B43CD8906EA9D
:1030100085052B4383800483CD880587028470BD9A
:1030200070B5002400220023058C4FF6FF66354062
:103030000584028C8388848B4FF68F752C404FF665
:10304000FC752C400D882C434FF6FF552A400D8906
:103050004FF6FF7606EA05252A434D8806EA052540
:103060002A431F4DA84202D0234DA8421DD14FF242
:10307000FF752A404D894FF6FF7606EA05252A435B
:103080004FF6FF352A408D8806EA05252A434EF67D
:10309000FF752B404DF6FF752B408D8906EA05150F
:1030A0002B43CD8906EA05152B4383808483CD8885
:1030B0008587028470BD70B5002200230024058C32
:1030C0004EF6FF7635400584038C8488828B48F663
:1030D000FF752A404FF6FF452A400D8820E000008A
:1030E000002C01400004004000080040000C00409B
:1030F000001000400014004000340140004C01402A
:10310000005001400054014000180040001C0040E5
:1031100000200040004001400044014000480140C0
:103120004FF6FF7606EA05252A434DF6FF752B403C
:103130000D8906EA05352B434D8806EA05352B43F4
:10314000FA4DA84202D0FA4DA84208D14BF6FF75BD
:103150002C408D894FF6FF7606EA85152C43848036
:103160008283CD88A0F84050038470BD828B4FF2DB
:10317000FF331A408283828B4FF6FF7303EA0123E9
:103180001A4382837047F0B50C4615460022002191
:103190000026078C4EF6FF7C07EA0C070784828B1B
:1031A000018C4FF6FF7707EA043640F6FF473A40B6
:1031B0004FF6FF7707EA05273A434FF6FF7707EA0E
:1031C00003373A43D94FB8420ED0D94FB8420BD04B
:1031D000B0F1804F08D0D74FB84205D0D64FB84293
:1031E00002D0D64FB84206D14DF6FF77394046F4AB
:1031F0008057394305E047F6FF57394044F480577C
:10320000394382830184F0BD828B4FF6F3731A40F9
:103210008283828B0A4382837047F0B50C46154641
:10322000002200210026078C4FF6FF6C07EA0C07EE
:103230000784828B018C4FF6FF7707EA04264FF64E
:103240000C773A404FF6FF7707EA03172F433A43CC
:10325000B64FB8420ED0B64FB8420BD0B0F1804F47
:1032600008D0B44FB84205D0B34FB84202D0B34FE4
:10327000B84206D14FF6FF57394046F480773943BC
:1032800005E04FF2FF57394044F480773943828399
:103290000184F0BD028B4FF2FF331A400283028B90
:1032A0004FF6FF7303EA01231A4302837047F0B518
:1032B0000C461546002200210026078C4FF6EF7CB5
:1032C00007EA0C070784028B018C4FF6FF7707EAA9
:1032D000041640F6FF473A404FF6FF7707EA0337F8
:1032E0003A434FF6FF7707EA05273A438F4FB84234
:1032F0000ED08F4FB8420BD0B0F1804F08D08D4F19
:10330000B84205D08C4FB84202D08C4FB84206D19B
:103310004FF6DF77394046F01007394305E04FF6A6
:103320005F77394044F01007394302830184F0BDD0
:10333000028B4FF6F3731A400283028B0A43028317
:103340007047F0B50C46154600220021068C4FF65A
:10335000FE773E400684028B018C4FF60C7632409D
:103360007E1C06EA03162E433243704EB0420ED046
:103370006F4EB0420BD0B0F1804F08D06D4EB042CE
:1033800005D06D4EB04202D06C4EB04206D14FF621
:10339000FD76314044F00106314305E04FF6F57605
:1033A000314044F00106314302830184F0BD70B521
:1033B00005460C465D4885420ED05D4885420BD0DF
:1033C000B5F1804F08D05B48854205D05A48854208
:1033D00002D05A48854200D100E000BF208850B991
:1033E0002389A28861882846FFF7ABFFE188284639
:1033F000FFF79EFF25E0208804280AD12389A288B0
:1034000061882846FFF753FFE1882846FFF742FF0F
:1034100017E0208808280AD12389A28861882846D5
:10342000FFF7FBFEE1882846FFF7EEFE09E023895F
:10343000A28861882846FFF7A6FEE1882846FFF7A4
:1034400095FE70BD2DE9F04105460C46002601278A
:10345000608808B9022600E00026A088012801D172
:10346000022700E001272088A0B92389A28861886B
:103470002846FFF766FFE1882846FFF759FF2389B2
:103480003A4631462846FFF712FFE1882846FFF703
:1034900001FF13E02389A28861882846FFF707FF10
:1034A000E1882846FFF7F6FE23893A46314628464A
:1034B000FFF747FFE1882846FFF73AFFBDE8F081B4
:1034C0000A884B881A438B881A43CB881A430B8986
:1034D0001A434B891A438B891A43A0F8442070473A
:1034E0004FF6FF71818000210180C180418001720F
:1034F00070470021018041808180C180018141812C
:103500008181C1817047002101804180012181803A
:103510000021C180018170470021018041808180AC
:10352000C18001814181818170470000002C0140F0
:10353000003401400004004000080040000C00403E
:1035400021B1028842F00102028004E002884FF6B5
:10355000FE731A400280704731B1B0F8442042F443
:103560000042A0F8442005E0B0F84420C2F30E0267
:10357000A0F8442070471AB183890B43838102E08D
:1035800083898B43838170478182704741EA0203BC
:10359000A0F8483070471AB183890B43838102E059
:1035A00083898B438381704701894FF6F8721140FC
:1035B000018170470A46002101894FF68F73194037
:1035C00011430181704730B504460D462946204617
:1035D000FFF7F0FF208940F00700208130BD2DE982
:1035E000F04104460D4616461F46602D06D13B4667
:1035F000012231462046FFF75AFE05E03B460122F4
:1036000031462046FFF79DFE29462046FFF7D2FFB0
:10361000208940F007002081BDE8F08130B50C46DC
:1036200000210189C9B24FF6FF7505EA032515434C
:1036300025432943018130BD2DE9F04105460E4661
:1036400017469846002443463A4631462846FFF737
:10365000E5FF2C894FF6F870044044F007044FF65C
:103660008F70044044F070042C81BDE8F081F0B507
:1036700004460D4616461F463B463246294620461E
:10368000FFF7CCFF208940F480402081F0BD018508
:10369000828270470A46002101884FF68F731940D5
:1036A000114301807047F0B50C4615461E460021B7
:1036B000002200230189028B038C4FF6F8773940F2
:1036C00021434FF6FC473A4040F201173A434FF688
:1036D000DD773B404FF6FF7707EA06172F433B4362
:1036E000018102830384F0BD0A460021018B4FF65D
:1036F0008F7319401143018370470A460021018BE3
:1037000048F6FF7319404FF6FF7303EA022319438B
:10371000018370470A460021818B4FF68F73194051
:103720001143818370470A460021818B48F6FF735D
:1037300019404FF6FF7303EA022319438183704750
:1037400021B1028842F08002028004E002884FF634
:103750007F731A400280704721B1828842F00402D0
:10376000828004E082884FF6FB731A4082807047A3
:1037700021B1828842F00802828004E082884FF6FC
:10378000F7731A408280704721B1828842F00102AB
:10379000828004E082884FF6FE731A408280704770
:1037A0000A460021018B4FF6F7731940114301833C
:1037B00070470A460021018B4FF2FF7319404FF604
:1037C000FF7303EA02231943018370470A4600216D
:1037D000818B4FF6F77319401143818370470A4676
:1037E0000021818B4FF2FF7319404FF6FF7303EAFC
:1037F00002231943818370470A460021018B4FF64B
:10380000FB7319401143018370470A460021018B65
:103810004FF6FF3319404FF6FF7303EA02231943B3
:10382000018370470A460021818B4FF6FB731940D4
:103830001143818370470A460021818B4FF6FF3385
:1038400019404FF6FF7303EA02231943818370473F
:103850000A460021018B4FF67F7319401143018303
:1038600070470A460021018BC1F30E014FF6FF732A
:1038700003EA02231943018370470A460021818B22
:103880004FF67F7319401143818370470A46002128
:10389000818BC1F30E014FF6FF7303EA0223194334
:1038A000818370470A460021018C4FF6FD73194051
:1038B0001143018470470A460021018C4FF6F773CB
:1038C00019401143018470470A460021018C4FF6CC
:1038D000DF7319404FF6FF7303EA021319430184A3
:1038E00070470A460021018C4FF67F7319404FF64E
:1038F000FF7303EA02131943018470470A4600214B
:10390000018C4FF6FF5319404FF6FF7303EA022371
:103910001943018470470A460021018C4FF2FF735E
:1039200019404FF6FF7303EA0223194301847047DD
:103930000A460021018C4DF6FF7319404FF6FF73C4
:1039400003EA023319430184704730B50023012490
:103950008C40A3B2048C9C430484048C02FA01F5CD
:10396000ADB22C43048430BD30B5002304248C4018
:10397000A3B2048C9C430484048C02FA01F5ADB21A
:103980002C43048430BD70B5034600200024184643
:10399000183001258D40ACB21D8CA5431D8409B1A2
:1039A000082909D100EB6100056825F07005056064
:1039B0000568154305600EE00D1FC5F34E0528444C
:1039C000056825F4E045056005684FF6FF7606EAD0
:1039D00002263543056070BD21B1028842F0020223
:1039E000028004E002884FF6FD731A40028070479F
:1039F00021B1028842F00402028004E002884FF6FE
:103A0000FB731A400280704721B1828842F0800225
:103A1000828004E082884FF67F731A40828070476C
:103A200002884FF6F7731A40028002880A43028028
:103A3000704782884FF68F731A40828082880A43CB
:103A40008280704702894FF6F8731A40028102891A
:103A50000A430281704702894FF67F731A40028140
:103A600002890A43028170478184704781857047CB
:103A7000818670470187704781877047A0F84010A2
:103A8000704702884FF6FF431A40028002880A43BB
:103A9000028070470146888E70470146088F704744
:103AA0000146888F70470146B1F8400070470146D3
:103AB000888C70470146088D704702460020138AA3
:103AC0000B400BB1012000E000207047CA43028286
:103AD000704730B50246002000230024158A05EA0D
:103AE0000103958905EA010413B10CB1012000E03E
:103AF000002030BDCA430282704700000E490860B2
:103B000070470D49486070470B49886070474AF616
:103B1000AA200949086070474CF6CC400649086065
:103B2000704701460020044AD2680A400AB10120C9
:103B300000E00020704700000030004010B504464F
:103B4000FA48844208D101214015FEF7CDFC00213E
:103B50006015FEF7C9FC17E0F548844208D1012141
:103B60000015FEF7C1FC00212015FEF7BDFC0BE09F
:103B7000F048844208D10121C803FEF7B5FC0021BA
:103B80004FF40040FEF7B0FC10BD30B502460020F7
:103B900000235068E84C20400D790C6844EA052465
:103BA000204350609068E54C2040D1E902542C43FA
:103BB0004D7944EA450420439060D06A20F47000B7
:103BC0000C7C641EE4B2234340EA0350D06230BD53
:103BD00000210160017141718160C16001210174A6
:103BE000704721B1826842F00102826003E082687E
:103BF00022F001028260704721B1826842F4807233
:103C0000826003E0826822F480728260704710B59F
:103C10000023CBB21AB144681C43446002E04468FC
:103C20009C43446010BD816841F008018160704789
:103C3000014600208A6802F008020AB1012000E073
:103C400000207047816841F004018160704701469F
:103C500000208A6802F004020AB1012000E000207E
:103C6000704721B1826842F4A002826003E082685A
:103C700022F4A00282607047014600208A6802F4A4
:103C800080020AB1012000E00020704710B50A460A
:103C900000210023416821F46041531E41EA433171
:103CA000416010BD21B1426842F40062426003E00D
:103CB000426822F4006242607047F0B504460D4647
:103CC00000200021092D11DDE068A5F10A0606EBB0
:103CD0004607072606FA07F18843A5F10A0606EB10
:103CE000460603FA06F10843E0600CE0206905EBA4
:103CF0004507072606FA07F1884305EB450603FA50
:103D000006F108432061072A0FDA606B561E06EBA6
:103D100086071F2606FA07F18843561E06EB86061D
:103D200005FA06F10843606322E00D2A0FDA206BE2
:103D3000D61F06EB86071F2606FA07F18843D61F13
:103D400006EB860605FA06F10843206310E0E06AF8
:103D5000A2F10D0606EB86071F2606FA07F1884337
:103D6000A2F10D0606EB860605FA06F10843E062AD
:103D7000F0BD21B1826842F48012826003E0826863
:103D800022F48012826070470146C86C80B270478E
:103D900066484C300068704721B1426842F4806246
:103DA000426003E0426822F480624260704721B1C1
:103DB000426842F48052426003E0426822F480523A
:103DC000426070470A460021816821F4E0411143B6
:103DD0008160704721B1826842F40042826003E052
:103DE000826822F400428260704721B1826842F406
:103DF0000212826003E0826822F40212826070473D
:103E0000014600208A6802F400120AB1012000E095
:103E100000207047F0B50446154600200022002619
:103E2000092911DDE068A1F10A0707EB470C072714
:103E300007FA0CF29043A1F10A0707EB470703FAD0
:103E400007F21043E0600CE0206901EB410C07270A
:103E500007FA0CF2904301EB410703FA07F2104313
:103E60002061A06BC0F30156EF1C06F1010CA7EB1B
:103E70000C0707EB870C1F2707FA0CF29043EF1C87
:103E800006F1010CA7EB0C0707EB870701FA07F215
:103E90001043A063F0BD10B50A4600210023816BDA
:103EA00021F44011531E41EA0351816310BD08B54E
:103EB000002300930090009B0B440093009B1A602A
:103EC00008BD08B5024600200090009201F12800CC
:103ED000009B184400900098006880B208BD0A4614
:103EE00000214168164B19401143416070474162FF
:103EF000826270470A460021416821F01F01114388
:103F00004160704740B109490831096841F4000136
:103F1000064A0832116007E004490831096821F4B3
:103F20000001024A0832116070470000002401407D
:103F300000280140003C0140FFFEF0FFFDF7F1FFCB
:103F4000FFFD3FFF0246002013680B400BB101202C
:103F500000E000207047CA430260704770B5024617
:103F60000020002300240B125568CEB205EA060497
:103F700015681D4015B10CB1012000E0002070BD96
:103F800000220A12D34303607047000006488047AE
:103F900006480047FEE7FEE7FEE7FEE7FEE7FEE72E
:103FA000FEE7FEE7FEE7FEE7FB1F00083101000821
:103FB00010B50446D4F82409002860DCD4F8280998
:103FC00000285CDC04F59A6204F51A7104F5986027
:103FD00000F02EFE4FF49A60005900284FDD04F5E2
:103FE0001A7000F039FA082810D14FF49A60005B7B
:103FF00081B204F51A7000F0C6FAA4F82C09082062
:10400000207240F6AC50C4F824092CE004F51A7074
:1040100000F022FA03281CD104F51A7000F023FAEC
:10402000012805D004F51A7000F01DFA02281AD1F3
:104030004FF49A60005B81B204F51A7000F0A3FAA5
:10404000A4F82C090320207240F6AC50C4F82409CF
:1040500009E004F51A7000F0FFF9062803D140F6D4
:10406000AC50C4F824094FF49A60025904F51A714F
:10407000F848FCF755FD40F6AC50C4F8280910BDCF
:104080000021A0F87E19A0F87C1970472DE9F84F9F
:1040900004468846154600200090404600F0DCF9B2
:1040A00000F0FF09404600F0DEF9C6B2294640465E
:1040B00000F069FA0746207A082826D12046FFF743
:1040C000DFFFB9F1090F20D10020C4F82409B4F8AA
:1040D0002C09B8420FD1681E18F8000080280AD0B9
:1040E00009202072D4F83C0978B1B4F82C09D4F82E
:1040F0003C19884709E000202072D4F8400920B11B
:10410000B4F82C09D4F840198847A9F103000B280A
:1041100075D2DFE800F0064E6087759C9C9C9C9CE5
:1041200098002046FFF7ACFF012E09D14FF416731B
:1041300004F11002211D384600F021FCE0600AE085
:10414000022E08D14FF4167304F11002211D3846D7
:1041500000F032FCE060012E01D0022E09D1E068AF
:10416000002806DD6B4604F59860E268616800F09F
:1041700035FDD4F84409D8B1A4F8745904F6741183
:10418000404600F071FCC4F86C09A4F8765904F6B6
:104190007611404600F099FCC4F87009B4F87639FD
:1041A000B4F87419D4F844C904F66C1005C8E04793
:1041B0004EE0207A03280DD1B4F82C09B84209D179
:1041C00000202072C4F82409D4F8380910B1D4F8BA
:1041D000380980473CE04FF4167304F11002211DAA
:1041E000384600F006FCE0600020C4F824096B4665
:1041F00004F59860E268616800F0F0FC28E026E0D1
:10420000207A03280DD1B4F82C09B84209D1002036
:104210002072C4F82409D4F8380910B1D4F8380948
:10422000804715E04FF4167304F11002211D384643
:1042300000F0FDFBE0606B4604F59860E2686168A1
:1042400000F0CCFC04E02046FFF71AFF00E000BFBE
:1042500000BFBDE8F88FD0F82419002904DDD0F89C
:104260002419491EC0F82419D0F82819002904DDA2
:10427000D0F82819491EC0F82819B0F87E1900296D
:1042800005DDB0F87C19491CA0F87C1902E000217A
:10429000A0F87C19B0F87819491CA0F87819B0F882
:1042A00078194FF47A7291FBF2F240F65C110958DA
:1042B0008A4202DB012180F87A19704738B504463A
:1042C000E06800280DDD6B4604F59860E2686168DF
:1042D00000F084FC009808B9002038BD6FF00100A0
:1042E000FBE74FF0FF30F8E770B504464FF4167265
:1042F00004F11001201D00F03FFCE0602046FFF7B4
:10430000DDFF0546ADB9002004F678142080A070CA
:10431000E088401CE080E088A4F67814042808DBDC
:104320000020A4F87E09D4F8340910B1D4F8340977
:104330008047284670BD10B5044694F87A0910B13C
:104340002046FFF7D1FFB4F87C09B0F5FA6F05DD20
:104350000020A4F87C092046FFF7C6FF10BD38B541
:104360000446282004F6FC034FF4806204F2FC416A
:10437000009004F5986000F011FC00202072E060CD
:104380002070C4F824092046FFF77AFE38BD70B5C6
:1043900004460D464FF4167304F11002294604F644
:1043A000481000F064F970BD10B50446204600F0D6
:1043B00053F8022803D1204600F052F810BD4FF008
:1043C000FF30FBE7C0F830197047C0F83419704768
:1043D000C0F8441970472DE9F84304460D461646C7
:1043E0001F46DDF820804FF4167004F11003221DE3
:1043F00031460090284600F012FAE060C4F83C799B
:10440000C4F840892046FFF759FFBDE8F8832DE93D
:10441000FF4704460D4616461F46DDE90D9ADDF8B6
:1044200030804FF4167204F11000211D4346CDE98F
:104430000091CDE902023A463146284600F050FA92
:10444000E060C4F838A92046FFF738FF04B0BDE8A3
:10445000F0870000004C00400146087800097047D2
:104460000146C878704701460878C0F3410070479C
:104470002DE9F04104460E4617469846069D2068F1
:104480002844801CB84203DD4FF0FF30BDE8F081C6
:10449000C5F307212268501C2060B1542268501CCB
:1044A0002060B554216888192A46414600F024FF4F
:1044B000206828442060A81CE8E770B5044606E0A0
:1044C000F9480088401C80B2F74D28800346002B35
:1044D000F6D02068801C904201DD002070BD1D12C6
:1044E0002668701C20608D552668701C20608B55D6
:1044F0001846F3E72DE9F04104460D46DDE9077C57
:10450000069EE91E7F2928DD1807000E06F0010827
:1045100040EAC80007F0030840EA48000CF0010830
:1045200040EA0800107008464FEAE17801EB58684D
:104530004FEAE818A1EBC81808F0FF0848F0800817
:1045400082F801804FEAE17801EB5868C8F3C71898
:1045500082F80280CD1C226012E01807000E06F0DF
:10456000010840EAC80007F0030840EA48000CF0E0
:10457000010840EA0800507091708D1C501C2060AA
:104580002846BDE8F08130B503460C46012C01DA1F
:10459000002030BD1846FFF75FFFC01E09284AD231
:1045A000DFE800F005363738393C3A493B00012254
:1045B00006E0985C00F0800008B9521C02E0521C32
:1045C000A242F6DB00BF901CA04201DB0020E0E726
:1045D0001046521C185C05021046521C185C05431C
:1045E0005019A04201DB0020D3E72A441846FFF708
:1045F0003AFF002804DD901CA04203DB0020C8E73E
:104600000020C6E7501C185C995C40EA0120C0E716
:1046100000BF00BF00BF00BF00BF00BF042C08DB0D
:10462000587800F0800020B9D878997840EA0120C5
:10463000AFE70020ADE70020ABE730B502460B4600
:10464000002001210EE0545C04F07F044D1EC5EBF8
:10465000C505AC402044545C04F080040CB9491CEE
:1046600002E0491C9942EEDB00BF084430BD2DE951
:10467000FF470446884616461F4600208A490880A0
:104680000320039003980A30B84203D9002004B0F5
:10469000BDE8F0870398351803980A30039000208E
:1046A00028700420687081A00068C5F8020004200A
:1046B000A8710020E871A08A000A2872207D687223
:1046C000206A18B1E87940F00200E871206890B1E2
:1046D0002068007878B1206800F044FE81460090A0
:1046E0003A46314603A82368FFF7C2FE002805DAE0
:1046F0004FF0FF30CBE76FF00100C8E7E06898B3F8
:10470000E068007880B3E06800F02CFE81460090FD
:104710003A46314603A8E368FFF7AAFE002802DA0A
:104720006FF00200B3E7206900F01CFE81460090A4
:104730003A46314603A82369FFF79AFE002802DAB9
:104740006FF00300A3E7E87940F00400E871E06946
:1047500018B1E87940F02000E871E879217E01F095
:10476000030140EAC100E8716068B0B16068007898
:1047700098B1606800F0F6FD814600903A463146F7
:1047800003A86368FFF774FE002802DA6FF00400E4
:104790007DE7E87940F08000E871A068B0B1A068DA
:1047A000007898B1A06800F0DDFD814600903A469F
:1047B000314603A8A368FFF75BFE002802DA6FF01A
:1047C000050064E7E87940F04000E87100200090BF
:1047D000019001233246029040460399FFF78AFE7A
:1047E00055E700B502461046FFF736FE022803D112
:1047F0001046FFF735FE00BD4FF0FF30FBE7FEB57A
:1048000005460C46174603260020009001900E2313
:104810002246314602902846FFF76CFEFEBD2DE988
:10482000FF4704460E4617461D46DDF8308003203C
:1048300003900CB1207820B94FF0FF3004B0BDE8F0
:10484000F08700234246294603A8FFF736FE1649A3
:10485000088010B96FF00100F0E7204600F082FDFB
:104860008146234642462946009003A8FFF700FEF2
:10487000002802DA6FF00200E0E70398401C404590
:1048800002DD6FF00300D9E7039A501C0390AE5489
:1048900000200121CDE9000108232A460290384674
:1048A0000399FFF727FEC9E7EC0100204D5154544E
:1048B0000000000030B504460D462046FFF7CCFD51
:1048C00009280BD129462046FFF75DFEB249098829
:1048D000884201D1002030BD0120FCE70120FAE729
:1048E0002DE9FF5F0446894615461E46DDF838A0CF
:1048F000DDE91078032003900CB1207820B94FF047
:10490000FF3004B0BDE8F09F204600F02BFD834649
:10491000234642463946009003A8FFF7A9FD002828
:1049200002DA6FF00100ECE7002E0BDD00234246B7
:10493000394603A8FFF7C1FD9749088028B96FF0F1
:104940000200DEE70020944908800398284440458F
:1049500002DD6FF00300D4E7039978182A46494630
:1049600000F0CAFC039828440390002003233A4631
:104970008DE8410403990F98FFF7BCFDC1E7FFB52F
:1049800004460D4616461F460320039023463A462A
:10499000314603A8FFF791FD18B94FF0FF3004B07E
:1049A000F0BD00200090019004233246029028467A
:1049B0000399FFF79FFDF2E7FFB504460D46164643
:1049C0001F460320039023463A46314603A8FFF7CB
:1049D00074FD18B94FF0FF3004B0F0BD0020009016
:1049E000019005233246029028460399FFF782FD85
:1049F000F2E7FFB504460D4616461F460320039016
:104A000023463A46314603A8FFF757FD18B94FF041
:104A1000FF3004B0F0BD00200121CDE900010623E4
:104A20003246029028460399FFF764FDF1E7FFB58F
:104A300004460D4616461F460320039023463A4679
:104A4000314603A8FFF739FD18B94FF0FF3004B025
:104A5000F0BD0020009001900723324602902846C6
:104A60000399FFF747FDF2E770B502460B460025B4
:104A700001210EE0505C00F07F004E1EC6EBC60622
:104A8000B0400544505C00F0800008B9491C03E0C8
:104A9000491C18888842EDDC00BF0D441E88881C24
:104AA000864201DC002070BD0846491C105C0402EF
:104AB0000846491C105C044308191E88B04201DDF9
:104AC0000020F0E71C805018EDE7F0B503460D46D6
:104AD00000262C880020288001220EE0985C00F03F
:104AE0007F00511EC1EBC10188400644985C00F074
:104AF000800008B9521C02E0521CA242EEDB00BF4B
:104B00001644901CA04201DB0020F0BD1046521C50
:104B1000185C07021046521C185C0743D019A042CB
:104B200001DB0020F1E73A441846FFF79CFC00281F
:104B300005DD901CA04201DB0020E6E7921C9642B6
:104B400001DA0020E1E7A64202DCB01A288001E089
:104B5000A01A28809818D8E7FEB505460C461746D7
:104B600003260020009001900D232246314602903A
:104B70002846FFF7BFFCFEBDFEB505460C461746AE
:104B800003260020009001900C232246314602901B
:104B90002846FFF7AFFCFEBDEC0100202DE9F041F7
:104BA00004460E4617461D46DDF8188072B63A4692
:104BB000314604F11C0000F05BF84246294604F13E
:104BC0002C0000F055F80020206060602072E0604A
:104BD00060722061606162B6BDE8F0817FB5044615
:104BE0000E461D4672B604F11C0000F08AF80299C8
:104BF000884218D904F12C0000F083F804280EDD57
:104C0000314604F11C00029A00F03CF9042202A98A
:104C100004F12C0000F036F90020286006E04FF087
:104C2000FF30286002E06FF00100286062B67FBDAF
:104C300070B504460E46154672B60020286004F191
:104C40002C0000F03FF8042810DB042204F11801C6
:104C500004F12C0000F067F8A069002806DD314659
:104C600004F11C00A26900F05EF8286062B670BD15
:104C700070B504460D4616461CB991A000F0DEFE44
:104C800070BD2660E560E0686060E068A06000BF1D
:104C9000F6E710B504461CB989A000F0CFFE10BDA0
:104CA0000020E0606060A060206000BFF7E710B502
:104CB00004462CB982A000F0C1FE4FF0FF3010BDB9
:104CC0002068FCE710B504462CB97DA000F0B6FEC4
:104CD0004FF0FF3010BDD4E90101884201D100201E
:104CE000F8E7D4E90101884203D2D4E90110401A5F
:104CF000F0E72046FFF7DBFFD4E90112891A401ADA
:104D0000E8E770B504462CB96DA000F097FE4FF0AF
:104D1000FF3070BD2046FFF7CAFF05462046FFF76B
:104D2000D1FF281AF5E72DE9F04104460F46164653
:104D300000252CB962A000F081FE681EBDE8F0815C
:104D40002FB966A000F07AFE4FF0FF30F6E7D4E905
:104D50000101884214D22046FFF7B4FFB04201D9C6
:104D6000304602E02046FFF7ADFF05462A463846AA
:104D7000616800F0C1FA6068284460602846DDE799
:104D80002046FFF794FFE2686168891A401AB04232
:104D90000AD935462A463846616800F0ADFA60689F
:104DA000284460602846C9E72046FFF780FFE26894
:104DB0006168891A451A2A463846616800F09CFAEB
:104DC000E0686060721B79192046FFF7ACFF05446C
:104DD0002846B3E72DE9F04104460F461546002664
:104DE0002CB945A000F02AFE701EBDE8F0812FB955
:104DF00047A000F023FE4FF0FF30F6E72046FFF714
:104E000080FFA84205D848A000F018FE4FF0FF3000
:104E1000EBE7D4E9010188422AD82046FFF747FF93
:104E2000D4E90212891A461AB54213D82A463946DD
:104E3000A06800F061FAA0682844A0602046FFF74F
:104E400036FFE1680844A168884201D1E068A060AB
:104E50002846CAE732463946A06800F04DFAE068B5
:104E6000A060AA1BB9192046FFF7B4FF3044BCE785
:104E70002A463946A06800F03FFAA0682844A0609E
:104E80002846B2E72DE9F04107460C4615460026B4
:104E90002CB92AA000F0D2FD701EBDE8F0812A4690
:104EA00021463846FFF796FF0646AE4205D02CA0B5
:104EB00000F0C4FD4FF0FF30EFE73046EDE70000B3
:104EC0004552524F523A20696E70757420726220BA
:104ED0006973204E554C4C0A000000004552524F59
:104EE000523A20696E707574206461746120697330
:104EF000204E554C4C0A00004552524F523A2072F7
:104F00006220697320656D707479200A00000000CA
:104F10004552524F523A2064617461206973206592
:104F20006D707479200A00004552524F523A206E3B
:104F30006F206D656D6F7279200A00004552524FE7
:104F4000523A2067697A50757444617461206275C1
:104F50006620697320656D707479200A0000000076
:104F60004552524F523A204661696C656420746F15
:104F70002072625772697465200A000010B586B00D
:104F8000044601218804FDF7A2FA01212820FDF73B
:104F900091FA5448FDF7F2FA4FF48060ADF814002E
:104FA00003208DF8160018208DF8170005A94E482B
:104FB000FDF748FD4FF40060ADF8140004208DF8B3
:104FC000170005A94848FDF73DFD27208DF8000092
:104FD00004208DF801008DF8020001208DF80300F7
:104FE0006846FDF790F801940020ADF80800ADF890
:104FF0000A00ADF80C00ADF810000C20ADF80E0062
:1050000001A93848FDF7FDFA012240F22551354843
:10501000FDF78FFB01213348FDF77FFB06B010BD84
:1050200010B5044621462F48FDF7E4FB00BF4021A0
:105030002C48FDF74DFC0028F9D010BD10B50446F2
:1050400003E014F8010BFFF7EBFF20780028F8D1FC
:1050500010BD70B506E02846691C8DB2B0F57A7FA8
:1050600000DD05E020211F48FDF732FC0028F2D0CA
:1050700000BF1C48FDF7C2FB0446E0B270BD10B58E
:1050800040F225511748FDF739FCB8B11548FDF736
:10509000B5FBC4B215480068112808D2144813495A
:1050A0000968445411480068401C104908600F48C2
:1050B0000068112802D100200C4908600821094825
:1050C000FDF706FC012806D10648FDF797FB0821ED
:1050D0000448FDF70AFC40F225510248FDF738FC70
:1050E00010BD000000480040000C0140F00100200D
:1050F000A823002008B501210220FDF7E8F90121CD
:105100001120FDF7D7F901213848FDF76CFD4FF468
:105110007070ADF8000018208DF8030003208DF8A2
:10512000020069463248FDF78DFC08BDF0B587B036
:1051300044F61F673C46254626462046ADF8140037
:105140004720ADF810000020ADF81600ADF81200B1
:1051500004A92848FDF798FE6020ADF80000012062
:10516000ADF80200ADF806700020ADF80800694601
:105170002048FDF7C6FE08211E48FEF711FB01205E
:10518000ADF80200ADF8064069461A48FDF7FBFE8F
:1051900008211848FEF70DFB0120ADF80200ADF81C
:1051A000065069461348FDF73BFF08211148FEF7FA
:1051B0000DFB0120ADF80200ADF8066069460D4810
:1051C000FDF779FF08210B48FEF709FB012109488B
:1051D000FEF7B6FA01210748FEF7B2F907B0F0BDB5
:1051E00010B5FFF787FFFFF7A1FF10BD000C1A00F5
:1051F000001001400004004000B587B001214FF4C9
:105200000F70FDF757F94FF40040FDF7B7F8032092
:10521000ADF8040000208DF8070001A93348FDF720
:1052200011FC3020ADF8040000208DF8070001A922
:105230002F48FDF707FC2F48FEF780FC0020029066
:105240008DF80C008DF80D004FF4602004900020C4
:10525000059001208DF8180002A92648FEF795FC5C
:1052600001212448FEF7BDFC2248FEF7DCFC00BF0C
:105270002048FEF7DDFC0028FAD11E48FEF7E2FCCC
:1052800000BF1C48FEF7E3FC0028FAD107B000BDC0
:1052900010B504460723012221461648FEF70DFDEE
:1052A00001211448FEF7DDFC00BF02211148FEF782
:1052B00049FE0028F9D00F48FEF766FD10BD2DE924
:1052C000F04107460C460025002608E03846FFF767
:1052D000DFFF05440520FBF74AFB701CC6B2A6425F
:1052E000F4DBB5FBF4F080B2BDE8F081000C0140C6
:1052F000001001400024014040EA01039B0703D055
:1053000009E008C9121F08C0042AFAD203E011F804
:10531000013B00F8013B521EF9D27047D2B201E0C6
:1053200000F8012B491EFBD270470022F6E710B5AA
:1053300013460A4604461946FFF7F0FF204610BD03
:1053400030B505462A460B4612F8010B13F8014BFF
:1053500008B1A042F8D01CB1002802D06D1CF1E7C2
:10536000284630BD421C10F8011B0029FBD1801AD1
:105370007047000070B50F4D00B92868002412E096
:105380000A4602E09E4203D0521C1378002BF9D14A
:10539000DAB2224305D02BB124B1002100F8011B61
:1053A00004E00446401C0678002EE9D1286020461F
:1053B00070BD0000F40100202DE9F04D81EA0304E6
:1053C00004F0004B21F0004514464FF0000A23F092
:1053D000004150EA050220D054EA01021DD0C5F375
:1053E0000A570246C5F31303C1F31300C1F30A566B
:1053F00040F4801543F48013A7EB0608101BD64633
:1054000008F2FD3873EB050002D308F1010801E052
:1054100092185B41B8F1000F03DA00200146BDE8A5
:10542000F08D00204FF48011064684460EE0171BD5
:1054300073EB050705D3121B63EB050306434CEA28
:10544000010C49084FEA300092185B4150EA01070D
:10545000EDD152EA030012D082EA040083EA05018A
:10546000084305D0101BAB4106D20122002306E001
:1054700000224FF0004302E06FF0010253101AEBDC
:1054800006004CEB085110EB0A0041EB0B01BDE8A4
:10549000F04D00F0D7B80EB5C10F80EAE0700844B7
:1054A000CA07002140F233438DE80E000A460B463E
:1054B00000F0D7F803B000BD00F0004230F000402B
:1054C0000AD0C10D01F56071C0F3160042EA015126
:1054D000C208400711437047002001467047000092
:1054E00030B5041E71F1000404DB4FF0004440426B
:1054F00064EB0101141E73F1000405DB1C464FF040
:105500000043524263EB0403994208BF904230BD0E
:1055100001F0004330B421F0004150EA010206D00E
:105520000A0DA2F56072C1F31301002A02DC30BC3F
:1055300000207047440F44EAC104C100E01830BCA9
:1055400000EBC25000F047B830B50B4601460020D2
:105550002022012409E021FA02F59D4205D303FA35
:1055600002F5491B04FA02F52844151EA2F10102B6
:10557000F1DC30BD2DE9F05F0546002092469B46E8
:1055800088460646814640241BE028464146474659
:10559000224600F006FA53465A46C01A914110D3EB
:1055A00011461846224600F0EDF92D1A67EB010866
:1055B0004F4622460120002100F0E4F917EB0009D4
:1055C0004E41201EA4F10104DFDC484631462A4644
:1055D0004346BDE8F09F0029A8BF7047401C490022
:1055E00008BF20F00100704710B4B0FA80FC00FA48
:1055F0000CF050EA010404BF10BC704749B1CCF173
:10560000200421FA04F411FA0CF118BF01212143FE
:105610000843A3EB0C01CB1D4FEA00614FEA1020B9
:1056200042BF002010BC704700EBC350104400295B
:10563000A4BF10BC7047401C490008BF20F0010007
:1056400010BC704710B5141E73F1000408DA401C3A
:1056500041F1000192185B411A4301D120F0010091
:1056600010BD2DE9F04D92469B4611B1B1FA81F281
:1056700002E0B0FA80F22032904600F083F904464E
:105680000F4640EA0A0041EA0B0153465A460843D6
:1056900013D0114653EA010019D0C8F14002504618
:1056A00000F07FF905460E4650465946424600F046
:1056B00069F9084305D0012004E020463946BDE8D9
:1056C000F08D0020054346EAE0762C4337430A98E4
:1056D0006305E40AA0EB08000022FD0A44EA4754EF
:1056E0000A3002D500200146E9E701051019694199
:1056F000DDE9084500196941BDE8F04DA2E72DE953
:10570000FE4F804681EA0300C00F0C46009021F056
:10571000004123F00045B8EB0200A94105D2404604
:10572000214690461C460B46024623F0004010439B
:1057300047D0270DC7F30A00C3F30A510290401A5D
:10574000019040286BDAC3F3130040F4801B0098EB
:10575000924620B10023D2EB030A63EB0B0B0198B6
:105760005946C0F14002504600F00CF906460D467D
:1057700050465946019A00F024F910EB08006141A7
:10578000002487EA115284EAE7731A4340D0009A52
:1057900062B3019A012A4FEA075215DC001B61EB44
:1057A00002014FF0004202EA0752CDE90042001C1C
:1057B00041F5801132462B46FFF753FF03B0BDE899
:1057C000F08F40462146F9E7001B61EB0201001C07
:1057D00041F5801300185B412018A2F5001747EB34
:1057E000030140EAD570B6196D4111E06D084FEA2A
:1057F000360645EAC0754FEA0752001B61EB02010D
:10580000001C41F5801149084FEA30000019514150
:1058100032462B4603B0BDE8F04FFFF713BF0098A8
:10582000012240000023D0EB020263EBE0730098FA
:1058300021464FEAE074B8EB000061EB0401E9E7B0
:1058400083F000435BE781F0004158E72DE9FE4F0C
:1058500081EA030404F0004421F0004100944FF079
:10586000000B23F0004350EA01045ED052EA030427
:105870005BD0C3F30A54C1F30A552C44A4F2F334A9
:105880000194A0FB0254C1F3130141F48011C3F34E
:10589000130343F4801301FB024400FB034E840A0C
:1058A000970A44EA815447EA8357A4FB07680295A4
:1058B0008D0A05FB07854FEA932C04FB0C54270542
:1058C000029D4FEA065847EA1637B5EB08056EEB1E
:1058D000070C870E920E47EA811742EA8312A7FB54
:1058E0000201B6EB0B0164EB00042B0D43EA0C3311
:1058F0005E1844EB1C50DA465146E7FB0201C5F343
:1059000013044FEA0B3343EA14534FEA0432019C69
:1059100043EA0603A4F10C040294009CCDE900B410
:10592000FFF79FFE03B0BDE8F08F00200146F9E7C6
:10593000C1F30A52C1F3130140F2FF3341F4801165
:105940009A4202DA00200146704740F233439A42FD
:10595000A2F2334202DC524200F023B800F012B847
:10596000064C074D06E0E06840F0010394E80700AC
:1059700098471034AC42F6D3FAF7DEFBCC6400084B
:10598000EC640008202A04DB203A00FA02F100202F
:1059900070479140C2F1200320FA03F3194390406D
:1059A0007047202A04DB203A21FA02F000217047D8
:1059B00021FA02F3D040C2F1200291400843194677
:1059C0007047202A06DBCB17203A41FA02F043EA5F
:1059D000E07306E041FA02F3D040C2F120029140A8
:1059E00008431946704770B58C1810F8015B15F024
:1059F000070301D110F8013B2A1106D110F8012B41
:105A000003E010F8016B01F8016B5B1EF9D12B0765
:105A100005D40023521E0DD401F8013BFAE710F81B
:105A2000013BCB1A921C03E013F8015B01F8015B08
:105A3000521EF9D5A142D8D3002070BD0FB4054B3A
:105A400010B503A9044A029800F0EEF810BC5DF806
:105A500014FB0000A30D0008F80100200FB4084B50
:105A600010B504A902AA039800F0DEF8044602A9C2
:105A7000002000F05CFC204610BC5DF814FB000028
:105A80002F63000802E008C8121F08C1002AFAD1DB
:105A900070477047002001E001C1121F002AFBD1AE
:105AA000704700002DE9FF5F82B00021DDE904307E
:105AB000020DDDF840B0034318D044F61050A2F2B6
:105AC000FF3242431514119801281FD0A5EB0B009B
:105AD000401C5FEA000A4FF000064E4FDFF8389195
